{
	"contracts/StorageFactory.sol": {
		"StorageFactory": {
			"abi": [
				{
					"inputs": [],
					"name": "createSimpleStorageContract",
					"outputs": [],
					"stateMutability": "nonpayable",
					"type": "function"
				},
				{
					"inputs": [
						{
							"internalType": "uint256",
							"name": "_simpleStorageIndex",
							"type": "uint256"
						},
						{
							"internalType": "uint256",
							"name": "_simpleStorageNumber",
							"type": "uint256"
						}
					],
					"name": "sfStore",
					"outputs": [],
					"stateMutability": "nonpayable",
					"type": "function"
				},
				{
					"inputs": [
						{
							"internalType": "uint256",
							"name": "",
							"type": "uint256"
						}
					],
					"name": "simpleStorageArray",
					"outputs": [
						{
							"internalType": "contract SimpleStorage",
							"name": "",
							"type": "address"
						}
					],
					"stateMutability": "view",
					"type": "function"
				}
			],
			"devdoc": {
				"kind": "dev",
				"methods": {},
				"version": 1
			},
			"evm": {
				"assembly": "    /* \"contracts/StorageFactory.sol\":88:587  contract StorageFactory {... */\n  mstore(0x40, 0x80)\n  callvalue\n  dup1\n  iszero\n  tag_1\n  jumpi\n  0x00\n  dup1\n  revert\ntag_1:\n  pop\n  dataSize(sub_0)\n  dup1\n  dataOffset(sub_0)\n  0x00\n  codecopy\n  0x00\n  return\nstop\n\nsub_0: assembly {\n        /* \"contracts/StorageFactory.sol\":88:587  contract StorageFactory {... */\n      mstore(0x40, 0x80)\n      callvalue\n      dup1\n      iszero\n      tag_1\n      jumpi\n      0x00\n      dup1\n      revert\n    tag_1:\n      pop\n      jumpi(tag_2, lt(calldatasize, 0x04))\n      shr(0xe0, calldataload(0x00))\n      dup1\n      0x1563700f\n      eq\n      tag_3\n      jumpi\n      dup1\n      0x1dda6541\n      eq\n      tag_4\n      jumpi\n      dup1\n      0x64591bf1\n      eq\n      tag_5\n      jumpi\n    tag_2:\n      0x00\n      dup1\n      revert\n        /* \"contracts/StorageFactory.sol\":341:585  function sfStore(uint256 _simpleStorageIndex, uint256 _simpleStorageNumber) public {... */\n    tag_3:\n      tag_6\n      0x04\n      dup1\n      calldatasize\n      sub\n      dup2\n      add\n      swap1\n      tag_7\n      swap2\n      swap1\n      tag_8\n      jump\t// in\n    tag_7:\n      tag_9\n      jump\t// in\n    tag_6:\n      stop\n        /* \"contracts/StorageFactory.sol\":175:335  function createSimpleStorageContract() public {... */\n    tag_4:\n      tag_10\n      tag_11\n      jump\t// in\n    tag_10:\n      stop\n        /* \"contracts/StorageFactory.sol\":123:164  SimpleStorage[] public simpleStorageArray */\n    tag_5:\n      tag_12\n      0x04\n      dup1\n      calldatasize\n      sub\n      dup2\n      add\n      swap1\n      tag_13\n      swap2\n      swap1\n      tag_14\n      jump\t// in\n    tag_13:\n      tag_15\n      jump\t// in\n    tag_12:\n      mload(0x40)\n      tag_16\n      swap2\n      swap1\n      tag_17\n      jump\t// in\n    tag_16:\n      mload(0x40)\n      dup1\n      swap2\n      sub\n      swap1\n      return\n        /* \"contracts/StorageFactory.sol\":341:585  function sfStore(uint256 _simpleStorageIndex, uint256 _simpleStorageNumber) public {... */\n    tag_9:\n        /* \"contracts/StorageFactory.sol\":434:461  SimpleStorage simpleStorage */\n      0x00\n        /* \"contracts/StorageFactory.sol\":486:504  simpleStorageArray */\n      dup1\n        /* \"contracts/StorageFactory.sol\":505:524  _simpleStorageIndex */\n      dup4\n        /* \"contracts/StorageFactory.sol\":486:525  simpleStorageArray[_simpleStorageIndex] */\n      dup2\n      sload\n      dup2\n      lt\n      tag_19\n      jumpi\n      tag_20\n      tag_21\n      jump\t// in\n    tag_20:\n    tag_19:\n      swap1\n      0x00\n      mstore\n      keccak256(0x00, 0x20)\n      add\n      0x00\n      swap1\n      sload\n      swap1\n      0x0100\n      exp\n      swap1\n      div\n      0xffffffffffffffffffffffffffffffffffffffff\n      and\n        /* \"contracts/StorageFactory.sol\":434:527  SimpleStorage simpleStorage = SimpleStorage(address(simpleStorageArray[_simpleStorageIndex])) */\n      swap1\n      pop\n        /* \"contracts/StorageFactory.sol\":537:550  simpleStorage */\n      dup1\n        /* \"contracts/StorageFactory.sol\":537:556  simpleStorage.store */\n      0xffffffffffffffffffffffffffffffffffffffff\n      and\n      0x6057361d\n        /* \"contracts/StorageFactory.sol\":557:577  _simpleStorageNumber */\n      dup4\n        /* \"contracts/StorageFactory.sol\":537:578  simpleStorage.store(_simpleStorageNumber) */\n      mload(0x40)\n      dup3\n      0xffffffff\n      and\n      0xe0\n      shl\n      dup2\n      mstore\n      0x04\n      add\n      tag_23\n      swap2\n      swap1\n      tag_24\n      jump\t// in\n    tag_23:\n      0x00\n      mload(0x40)\n      dup1\n      dup4\n      sub\n      dup2\n      0x00\n      dup8\n      dup1\n      extcodesize\n      iszero\n      dup1\n      iszero\n      tag_25\n      jumpi\n      0x00\n      dup1\n      revert\n    tag_25:\n      pop\n      gas\n      call\n      iszero\n      dup1\n      iszero\n      tag_27\n      jumpi\n      returndatasize\n      0x00\n      dup1\n      returndatacopy\n      revert(0x00, returndatasize)\n    tag_27:\n      pop\n      pop\n      pop\n      pop\n        /* \"contracts/StorageFactory.sol\":424:585  {... */\n      pop\n        /* \"contracts/StorageFactory.sol\":341:585  function sfStore(uint256 _simpleStorageIndex, uint256 _simpleStorageNumber) public {... */\n      pop\n      pop\n      jump\t// out\n        /* \"contracts/StorageFactory.sol\":175:335  function createSimpleStorageContract() public {... */\n    tag_11:\n        /* \"contracts/StorageFactory.sol\":231:258  SimpleStorage simpleStorage */\n      0x00\n        /* \"contracts/StorageFactory.sol\":261:280  new SimpleStorage() */\n      mload(0x40)\n      tag_29\n      swap1\n      tag_30\n      jump\t// in\n    tag_29:\n      mload(0x40)\n      dup1\n      swap2\n      sub\n      swap1\n      0x00\n      create\n      dup1\n      iszero\n      dup1\n      iszero\n      tag_31\n      jumpi\n      returndatasize\n      0x00\n      dup1\n      returndatacopy\n      revert(0x00, returndatasize)\n    tag_31:\n      pop\n        /* \"contracts/StorageFactory.sol\":231:280  SimpleStorage simpleStorage = new SimpleStorage() */\n      swap1\n      pop\n        /* \"contracts/StorageFactory.sol\":290:308  simpleStorageArray */\n      0x00\n        /* \"contracts/StorageFactory.sol\":314:327  simpleStorage */\n      dup2\n        /* \"contracts/StorageFactory.sol\":290:328  simpleStorageArray.push(simpleStorage) */\n      swap1\n      dup1\n      0x01\n      dup2\n      sload\n      add\n      dup1\n      dup3\n      sstore\n      dup1\n      swap2\n      pop\n      pop\n      0x01\n      swap1\n      sub\n      swap1\n      0x00\n      mstore\n      keccak256(0x00, 0x20)\n      add\n      0x00\n      swap1\n      swap2\n      swap1\n      swap2\n      swap1\n      swap2\n      0x0100\n      exp\n      dup2\n      sload\n      dup2\n      0xffffffffffffffffffffffffffffffffffffffff\n      mul\n      not\n      and\n      swap1\n      dup4\n      0xffffffffffffffffffffffffffffffffffffffff\n      and\n      mul\n      or\n      swap1\n      sstore\n      pop\n        /* \"contracts/StorageFactory.sol\":221:335  {... */\n      pop\n        /* \"contracts/StorageFactory.sol\":175:335  function createSimpleStorageContract() public {... */\n      jump\t// out\n        /* \"contracts/StorageFactory.sol\":123:164  SimpleStorage[] public simpleStorageArray */\n    tag_15:\n      0x00\n      dup2\n      dup2\n      sload\n      dup2\n      lt\n      tag_33\n      jumpi\n      0x00\n      dup1\n      revert\n    tag_33:\n      swap1\n      0x00\n      mstore\n      keccak256(0x00, 0x20)\n      add\n      0x00\n      swap2\n      pop\n      sload\n      swap1\n      0x0100\n      exp\n      swap1\n      div\n      0xffffffffffffffffffffffffffffffffffffffff\n      and\n      dup2\n      jump\t// out\n    tag_30:\n      dataSize(sub_0)\n      dup1\n      dataOffset(sub_0)\n      dup4\n      codecopy\n      add\n      swap1\n      jump\t// out\n        /* \"#utility.yul\":7:146   */\n    tag_36:\n        /* \"#utility.yul\":53:58   */\n      0x00\n        /* \"#utility.yul\":91:97   */\n      dup2\n        /* \"#utility.yul\":78:98   */\n      calldataload\n        /* \"#utility.yul\":69:98   */\n      swap1\n      pop\n        /* \"#utility.yul\":107:140   */\n      tag_38\n        /* \"#utility.yul\":134:139   */\n      dup2\n        /* \"#utility.yul\":107:140   */\n      tag_39\n      jump\t// in\n    tag_38:\n        /* \"#utility.yul\":7:146   */\n      swap3\n      swap2\n      pop\n      pop\n      jump\t// out\n        /* \"#utility.yul\":152:481   */\n    tag_14:\n        /* \"#utility.yul\":211:217   */\n      0x00\n        /* \"#utility.yul\":260:262   */\n      0x20\n        /* \"#utility.yul\":248:257   */\n      dup3\n        /* \"#utility.yul\":239:246   */\n      dup5\n        /* \"#utility.yul\":235:258   */\n      sub\n        /* \"#utility.yul\":231:263   */\n      slt\n        /* \"#utility.yul\":228:347   */\n      iszero\n      tag_41\n      jumpi\n        /* \"#utility.yul\":266:345   */\n      tag_42\n      tag_43\n      jump\t// in\n    tag_42:\n        /* \"#utility.yul\":228:347   */\n    tag_41:\n        /* \"#utility.yul\":386:387   */\n      0x00\n        /* \"#utility.yul\":411:464   */\n      tag_44\n        /* \"#utility.yul\":456:463   */\n      dup5\n        /* \"#utility.yul\":447:453   */\n      dup3\n        /* \"#utility.yul\":436:445   */\n      dup6\n        /* \"#utility.yul\":432:454   */\n      add\n        /* \"#utility.yul\":411:464   */\n      tag_36\n      jump\t// in\n    tag_44:\n        /* \"#utility.yul\":401:464   */\n      swap2\n      pop\n        /* \"#utility.yul\":357:474   */\n      pop\n        /* \"#utility.yul\":152:481   */\n      swap3\n      swap2\n      pop\n      pop\n      jump\t// out\n        /* \"#utility.yul\":487:961   */\n    tag_8:\n        /* \"#utility.yul\":555:561   */\n      0x00\n        /* \"#utility.yul\":563:569   */\n      dup1\n        /* \"#utility.yul\":612:614   */\n      0x40\n        /* \"#utility.yul\":600:609   */\n      dup4\n        /* \"#utility.yul\":591:598   */\n      dup6\n        /* \"#utility.yul\":587:610   */\n      sub\n        /* \"#utility.yul\":583:615   */\n      slt\n        /* \"#utility.yul\":580:699   */\n      iszero\n      tag_46\n      jumpi\n        /* \"#utility.yul\":618:697   */\n      tag_47\n      tag_43\n      jump\t// in\n    tag_47:\n        /* \"#utility.yul\":580:699   */\n    tag_46:\n        /* \"#utility.yul\":738:739   */\n      0x00\n        /* \"#utility.yul\":763:816   */\n      tag_48\n        /* \"#utility.yul\":808:815   */\n      dup6\n        /* \"#utility.yul\":799:805   */\n      dup3\n        /* \"#utility.yul\":788:797   */\n      dup7\n        /* \"#utility.yul\":784:806   */\n      add\n        /* \"#utility.yul\":763:816   */\n      tag_36\n      jump\t// in\n    tag_48:\n        /* \"#utility.yul\":753:816   */\n      swap3\n      pop\n        /* \"#utility.yul\":709:826   */\n      pop\n        /* \"#utility.yul\":865:867   */\n      0x20\n        /* \"#utility.yul\":891:944   */\n      tag_49\n        /* \"#utility.yul\":936:943   */\n      dup6\n        /* \"#utility.yul\":927:933   */\n      dup3\n        /* \"#utility.yul\":916:925   */\n      dup7\n        /* \"#utility.yul\":912:934   */\n      add\n        /* \"#utility.yul\":891:944   */\n      tag_36\n      jump\t// in\n    tag_49:\n        /* \"#utility.yul\":881:944   */\n      swap2\n      pop\n        /* \"#utility.yul\":836:954   */\n      pop\n        /* \"#utility.yul\":487:961   */\n      swap3\n      pop\n      swap3\n      swap1\n      pop\n      jump\t// out\n        /* \"#utility.yul\":967:1138   */\n    tag_50:\n        /* \"#utility.yul\":1074:1131   */\n      tag_52\n        /* \"#utility.yul\":1125:1130   */\n      dup2\n        /* \"#utility.yul\":1074:1131   */\n      tag_53\n      jump\t// in\n    tag_52:\n        /* \"#utility.yul\":1069:1072   */\n      dup3\n        /* \"#utility.yul\":1062:1132   */\n      mstore\n        /* \"#utility.yul\":967:1138   */\n      pop\n      pop\n      jump\t// out\n        /* \"#utility.yul\":1144:1262   */\n    tag_54:\n        /* \"#utility.yul\":1231:1255   */\n      tag_56\n        /* \"#utility.yul\":1249:1254   */\n      dup2\n        /* \"#utility.yul\":1231:1255   */\n      tag_57\n      jump\t// in\n    tag_56:\n        /* \"#utility.yul\":1226:1229   */\n      dup3\n        /* \"#utility.yul\":1219:1256   */\n      mstore\n        /* \"#utility.yul\":1144:1262   */\n      pop\n      pop\n      jump\t// out\n        /* \"#utility.yul\":1268:1530   */\n    tag_17:\n        /* \"#utility.yul\":1381:1385   */\n      0x00\n        /* \"#utility.yul\":1419:1421   */\n      0x20\n        /* \"#utility.yul\":1408:1417   */\n      dup3\n        /* \"#utility.yul\":1404:1422   */\n      add\n        /* \"#utility.yul\":1396:1422   */\n      swap1\n      pop\n        /* \"#utility.yul\":1432:1523   */\n      tag_59\n        /* \"#utility.yul\":1520:1521   */\n      0x00\n        /* \"#utility.yul\":1509:1518   */\n      dup4\n        /* \"#utility.yul\":1505:1522   */\n      add\n        /* \"#utility.yul\":1496:1502   */\n      dup5\n        /* \"#utility.yul\":1432:1523   */\n      tag_50\n      jump\t// in\n    tag_59:\n        /* \"#utility.yul\":1268:1530   */\n      swap3\n      swap2\n      pop\n      pop\n      jump\t// out\n        /* \"#utility.yul\":1536:1758   */\n    tag_24:\n        /* \"#utility.yul\":1629:1633   */\n      0x00\n        /* \"#utility.yul\":1667:1669   */\n      0x20\n        /* \"#utility.yul\":1656:1665   */\n      dup3\n        /* \"#utility.yul\":1652:1670   */\n      add\n        /* \"#utility.yul\":1644:1670   */\n      swap1\n      pop\n        /* \"#utility.yul\":1680:1751   */\n      tag_61\n        /* \"#utility.yul\":1748:1749   */\n      0x00\n        /* \"#utility.yul\":1737:1746   */\n      dup4\n        /* \"#utility.yul\":1733:1750   */\n      add\n        /* \"#utility.yul\":1724:1730   */\n      dup5\n        /* \"#utility.yul\":1680:1751   */\n      tag_54\n      jump\t// in\n    tag_61:\n        /* \"#utility.yul\":1536:1758   */\n      swap3\n      swap2\n      pop\n      pop\n      jump\t// out\n        /* \"#utility.yul\":1845:1971   */\n    tag_64:\n        /* \"#utility.yul\":1882:1889   */\n      0x00\n        /* \"#utility.yul\":1922:1964   */\n      0xffffffffffffffffffffffffffffffffffffffff\n        /* \"#utility.yul\":1915:1920   */\n      dup3\n        /* \"#utility.yul\":1911:1965   */\n      and\n        /* \"#utility.yul\":1900:1965   */\n      swap1\n      pop\n        /* \"#utility.yul\":1845:1971   */\n      swap2\n      swap1\n      pop\n      jump\t// out\n        /* \"#utility.yul\":1977:2054   */\n    tag_57:\n        /* \"#utility.yul\":2014:2021   */\n      0x00\n        /* \"#utility.yul\":2043:2048   */\n      dup2\n        /* \"#utility.yul\":2032:2048   */\n      swap1\n      pop\n        /* \"#utility.yul\":1977:2054   */\n      swap2\n      swap1\n      pop\n      jump\t// out\n        /* \"#utility.yul\":2060:2206   */\n    tag_53:\n        /* \"#utility.yul\":2130:2139   */\n      0x00\n        /* \"#utility.yul\":2163:2200   */\n      tag_68\n        /* \"#utility.yul\":2194:2199   */\n      dup3\n        /* \"#utility.yul\":2163:2200   */\n      tag_69\n      jump\t// in\n    tag_68:\n        /* \"#utility.yul\":2150:2200   */\n      swap1\n      pop\n        /* \"#utility.yul\":2060:2206   */\n      swap2\n      swap1\n      pop\n      jump\t// out\n        /* \"#utility.yul\":2212:2338   */\n    tag_69:\n        /* \"#utility.yul\":2262:2271   */\n      0x00\n        /* \"#utility.yul\":2295:2332   */\n      tag_71\n        /* \"#utility.yul\":2326:2331   */\n      dup3\n        /* \"#utility.yul\":2295:2332   */\n      tag_72\n      jump\t// in\n    tag_71:\n        /* \"#utility.yul\":2282:2332   */\n      swap1\n      pop\n        /* \"#utility.yul\":2212:2338   */\n      swap2\n      swap1\n      pop\n      jump\t// out\n        /* \"#utility.yul\":2344:2457   */\n    tag_72:\n        /* \"#utility.yul\":2394:2403   */\n      0x00\n        /* \"#utility.yul\":2427:2451   */\n      tag_74\n        /* \"#utility.yul\":2445:2450   */\n      dup3\n        /* \"#utility.yul\":2427:2451   */\n      tag_64\n      jump\t// in\n    tag_74:\n        /* \"#utility.yul\":2414:2451   */\n      swap1\n      pop\n        /* \"#utility.yul\":2344:2457   */\n      swap2\n      swap1\n      pop\n      jump\t// out\n        /* \"#utility.yul\":2463:2643   */\n    tag_21:\n        /* \"#utility.yul\":2511:2588   */\n      0x4e487b7100000000000000000000000000000000000000000000000000000000\n        /* \"#utility.yul\":2508:2509   */\n      0x00\n        /* \"#utility.yul\":2501:2589   */\n      mstore\n        /* \"#utility.yul\":2608:2612   */\n      0x32\n        /* \"#utility.yul\":2605:2606   */\n      0x04\n        /* \"#utility.yul\":2598:2613   */\n      mstore\n        /* \"#utility.yul\":2632:2636   */\n      0x24\n        /* \"#utility.yul\":2629:2630   */\n      0x00\n        /* \"#utility.yul\":2622:2637   */\n      revert\n        /* \"#utility.yul\":2772:2889   */\n    tag_43:\n        /* \"#utility.yul\":2881:2882   */\n      0x00\n        /* \"#utility.yul\":2878:2879   */\n      dup1\n        /* \"#utility.yul\":2871:2883   */\n      revert\n        /* \"#utility.yul\":2895:3017   */\n    tag_39:\n        /* \"#utility.yul\":2968:2992   */\n      tag_80\n        /* \"#utility.yul\":2986:2991   */\n      dup2\n        /* \"#utility.yul\":2968:2992   */\n      tag_57\n      jump\t// in\n    tag_80:\n        /* \"#utility.yul\":2961:2966   */\n      dup2\n        /* \"#utility.yul\":2958:2993   */\n      eq\n        /* \"#utility.yul\":2948:3011   */\n      tag_81\n      jumpi\n        /* \"#utility.yul\":3007:3008   */\n      0x00\n        /* \"#utility.yul\":3004:3005   */\n      dup1\n        /* \"#utility.yul\":2997:3009   */\n      revert\n        /* \"#utility.yul\":2948:3011   */\n    tag_81:\n        /* \"#utility.yul\":2895:3017   */\n      pop\n      jump\t// out\n    stop\n\n    sub_0: assembly {\n            /* \"contracts/SimpleStorage.sol\":57:579  contract SimpleStorage {... */\n          mstore(0x40, 0x80)\n          callvalue\n          dup1\n          iszero\n          tag_1\n          jumpi\n          0x00\n          dup1\n          revert\n        tag_1:\n          pop\n          dataSize(sub_0)\n          dup1\n          dataOffset(sub_0)\n          0x00\n          codecopy\n          0x00\n          return\n        stop\n\n        sub_0: assembly {\n                /* \"contracts/SimpleStorage.sol\":57:579  contract SimpleStorage {... */\n              mstore(0x40, 0x80)\n              callvalue\n              dup1\n              iszero\n              tag_1\n              jumpi\n              0x00\n              dup1\n              revert\n            tag_1:\n              pop\n              jumpi(tag_2, lt(calldatasize, 0x04))\n              shr(0xe0, calldataload(0x00))\n              dup1\n              0x2e64cec1\n              eq\n              tag_3\n              jumpi\n              dup1\n              0x6057361d\n              eq\n              tag_4\n              jumpi\n              dup1\n              0x6f760f41\n              eq\n              tag_5\n              jumpi\n              dup1\n              0x9e7a13ad\n              eq\n              tag_6\n              jumpi\n            tag_2:\n              0x00\n              dup1\n              revert\n                /* \"contracts/SimpleStorage.sol\":328:415  function retrieve() public view returns(uint256) {... */\n            tag_3:\n              tag_7\n              tag_8\n              jump\t// in\n            tag_7:\n              mload(0x40)\n              tag_9\n              swap2\n              swap1\n              tag_10\n              jump\t// in\n            tag_9:\n              mload(0x40)\n              dup1\n              swap2\n              sub\n              swap1\n              return\n                /* \"contracts/SimpleStorage.sol\":226:322  function store(uint256 _favoriteNumber) public {... */\n            tag_4:\n              tag_11\n              0x04\n              dup1\n              calldatasize\n              sub\n              dup2\n              add\n              swap1\n              tag_12\n              swap2\n              swap1\n              tag_13\n              jump\t// in\n            tag_12:\n              tag_14\n              jump\t// in\n            tag_11:\n              stop\n                /* \"contracts/SimpleStorage.sol\":421:577  function addPerson(string memory _name, uint256 _favoriteNumber) public {... */\n            tag_5:\n              tag_15\n              0x04\n              dup1\n              calldatasize\n              sub\n              dup2\n              add\n              swap1\n              tag_16\n              swap2\n              swap1\n              tag_17\n              jump\t// in\n            tag_16:\n              tag_18\n              jump\t// in\n            tag_15:\n              stop\n                /* \"contracts/SimpleStorage.sol\":197:219  Person[] public people */\n            tag_6:\n              tag_19\n              0x04\n              dup1\n              calldatasize\n              sub\n              dup2\n              add\n              swap1\n              tag_20\n              swap2\n              swap1\n              tag_13\n              jump\t// in\n            tag_20:\n              tag_21\n              jump\t// in\n            tag_19:\n              mload(0x40)\n              tag_22\n              swap3\n              swap2\n              swap1\n              tag_23\n              jump\t// in\n            tag_22:\n              mload(0x40)\n              dup1\n              swap2\n              sub\n              swap1\n              return\n                /* \"contracts/SimpleStorage.sol\":328:415  function retrieve() public view returns(uint256) {... */\n            tag_8:\n                /* \"contracts/SimpleStorage.sol\":368:375  uint256 */\n              0x00\n                /* \"contracts/SimpleStorage.sol\":394:408  favoriteNumber */\n              dup1\n              sload\n                /* \"contracts/SimpleStorage.sol\":387:408  return favoriteNumber */\n              swap1\n              pop\n                /* \"contracts/SimpleStorage.sol\":328:415  function retrieve() public view returns(uint256) {... */\n              swap1\n              jump\t// out\n                /* \"contracts/SimpleStorage.sol\":226:322  function store(uint256 _favoriteNumber) public {... */\n            tag_14:\n                /* \"contracts/SimpleStorage.sol\":300:315  _favoriteNumber */\n              dup1\n                /* \"contracts/SimpleStorage.sol\":283:297  favoriteNumber */\n              0x00\n                /* \"contracts/SimpleStorage.sol\":283:315  favoriteNumber = _favoriteNumber */\n              dup2\n              swap1\n              sstore\n              pop\n                /* \"contracts/SimpleStorage.sol\":226:322  function store(uint256 _favoriteNumber) public {... */\n              pop\n              jump\t// out\n                /* \"contracts/SimpleStorage.sol\":421:577  function addPerson(string memory _name, uint256 _favoriteNumber) public {... */\n            tag_18:\n                /* \"contracts/SimpleStorage.sol\":503:509  people */\n              0x01\n                /* \"contracts/SimpleStorage.sol\":515:569  Person({favoriteNumber: _favoriteNumber, name: _name}) */\n              mload(0x40)\n              dup1\n              0x40\n              add\n              0x40\n              mstore\n              dup1\n                /* \"contracts/SimpleStorage.sol\":539:554  _favoriteNumber */\n              dup4\n                /* \"contracts/SimpleStorage.sol\":515:569  Person({favoriteNumber: _favoriteNumber, name: _name}) */\n              dup2\n              mstore\n              0x20\n              add\n                /* \"contracts/SimpleStorage.sol\":562:567  _name */\n              dup5\n                /* \"contracts/SimpleStorage.sol\":515:569  Person({favoriteNumber: _favoriteNumber, name: _name}) */\n              dup2\n              mstore\n              pop\n                /* \"contracts/SimpleStorage.sol\":503:570  people.push(Person({favoriteNumber: _favoriteNumber, name: _name})) */\n              swap1\n              dup1\n              0x01\n              dup2\n              sload\n              add\n              dup1\n              dup3\n              sstore\n              dup1\n              swap2\n              pop\n              pop\n              0x01\n              swap1\n              sub\n              swap1\n              0x00\n              mstore\n              keccak256(0x00, 0x20)\n              swap1\n              0x02\n              mul\n              add\n              0x00\n              swap1\n              swap2\n              swap1\n              swap2\n              swap1\n              swap2\n              pop\n              0x00\n              dup3\n              add\n              mload\n              dup2\n              0x00\n              add\n              sstore\n              0x20\n              dup3\n              add\n              mload\n              dup2\n              0x01\n              add\n              swap1\n              dup1\n              mload\n              swap1\n              0x20\n              add\n              swap1\n              tag_28\n              swap3\n              swap2\n              swap1\n              tag_29\n              jump\t// in\n            tag_28:\n              pop\n              pop\n              pop\n                /* \"contracts/SimpleStorage.sol\":421:577  function addPerson(string memory _name, uint256 _favoriteNumber) public {... */\n              pop\n              pop\n              jump\t// out\n                /* \"contracts/SimpleStorage.sol\":197:219  Person[] public people */\n            tag_21:\n              0x01\n              dup2\n              dup2\n              sload\n              dup2\n              lt\n              tag_30\n              jumpi\n              0x00\n              dup1\n              revert\n            tag_30:\n              swap1\n              0x00\n              mstore\n              keccak256(0x00, 0x20)\n              swap1\n              0x02\n              mul\n              add\n              0x00\n              swap2\n              pop\n              swap1\n              pop\n              dup1\n              0x00\n              add\n              sload\n              swap1\n              dup1\n              0x01\n              add\n              dup1\n              sload\n              tag_32\n              swap1\n              tag_33\n              jump\t// in\n            tag_32:\n              dup1\n              0x1f\n              add\n              0x20\n              dup1\n              swap2\n              div\n              mul\n              0x20\n              add\n              mload(0x40)\n              swap1\n              dup2\n              add\n              0x40\n              mstore\n              dup1\n              swap3\n              swap2\n              swap1\n              dup2\n              dup2\n              mstore\n              0x20\n              add\n              dup3\n              dup1\n              sload\n              tag_34\n              swap1\n              tag_33\n              jump\t// in\n            tag_34:\n              dup1\n              iszero\n              tag_35\n              jumpi\n              dup1\n              0x1f\n              lt\n              tag_36\n              jumpi\n              0x0100\n              dup1\n              dup4\n              sload\n              div\n              mul\n              dup4\n              mstore\n              swap2\n              0x20\n              add\n              swap2\n              jump(tag_35)\n            tag_36:\n              dup3\n              add\n              swap2\n              swap1\n              0x00\n              mstore\n              keccak256(0x00, 0x20)\n              swap1\n            tag_37:\n              dup2\n              sload\n              dup2\n              mstore\n              swap1\n              0x01\n              add\n              swap1\n              0x20\n              add\n              dup1\n              dup4\n              gt\n              tag_37\n              jumpi\n              dup3\n              swap1\n              sub\n              0x1f\n              and\n              dup3\n              add\n              swap2\n            tag_35:\n              pop\n              pop\n              pop\n              pop\n              pop\n              swap1\n              pop\n              dup3\n              jump\t// out\n            tag_29:\n              dup3\n              dup1\n              sload\n              tag_38\n              swap1\n              tag_33\n              jump\t// in\n            tag_38:\n              swap1\n              0x00\n              mstore\n              keccak256(0x00, 0x20)\n              swap1\n              0x1f\n              add\n              0x20\n              swap1\n              div\n              dup2\n              add\n              swap3\n              dup3\n              tag_40\n              jumpi\n              0x00\n              dup6\n              sstore\n              jump(tag_39)\n            tag_40:\n              dup3\n              0x1f\n              lt\n              tag_41\n              jumpi\n              dup1\n              mload\n              not(0xff)\n              and\n              dup4\n              dup1\n              add\n              or\n              dup6\n              sstore\n              jump(tag_39)\n            tag_41:\n              dup3\n              dup1\n              add\n              0x01\n              add\n              dup6\n              sstore\n              dup3\n              iszero\n              tag_39\n              jumpi\n              swap2\n              dup3\n              add\n            tag_42:\n              dup3\n              dup2\n              gt\n              iszero\n              tag_43\n              jumpi\n              dup3\n              mload\n              dup3\n              sstore\n              swap2\n              0x20\n              add\n              swap2\n              swap1\n              0x01\n              add\n              swap1\n              jump(tag_42)\n            tag_43:\n            tag_39:\n              pop\n              swap1\n              pop\n              tag_44\n              swap2\n              swap1\n              tag_45\n              jump\t// in\n            tag_44:\n              pop\n              swap1\n              jump\t// out\n            tag_45:\n            tag_46:\n              dup1\n              dup3\n              gt\n              iszero\n              tag_47\n              jumpi\n              0x00\n              dup2\n              0x00\n              swap1\n              sstore\n              pop\n              0x01\n              add\n              jump(tag_46)\n            tag_47:\n              pop\n              swap1\n              jump\t// out\n                /* \"#utility.yul\":7:419   */\n            tag_49:\n                /* \"#utility.yul\":85:90   */\n              0x00\n                /* \"#utility.yul\":110:176   */\n              tag_51\n                /* \"#utility.yul\":126:175   */\n              tag_52\n                /* \"#utility.yul\":168:174   */\n              dup5\n                /* \"#utility.yul\":126:175   */\n              tag_53\n              jump\t// in\n            tag_52:\n                /* \"#utility.yul\":110:176   */\n              tag_54\n              jump\t// in\n            tag_51:\n                /* \"#utility.yul\":101:176   */\n              swap1\n              pop\n                /* \"#utility.yul\":199:205   */\n              dup3\n                /* \"#utility.yul\":192:197   */\n              dup2\n                /* \"#utility.yul\":185:206   */\n              mstore\n                /* \"#utility.yul\":237:241   */\n              0x20\n                /* \"#utility.yul\":230:235   */\n              dup2\n                /* \"#utility.yul\":226:242   */\n              add\n                /* \"#utility.yul\":275:278   */\n              dup5\n                /* \"#utility.yul\":266:272   */\n              dup5\n                /* \"#utility.yul\":261:264   */\n              dup5\n                /* \"#utility.yul\":257:273   */\n              add\n                /* \"#utility.yul\":254:279   */\n              gt\n                /* \"#utility.yul\":251:363   */\n              iszero\n              tag_55\n              jumpi\n                /* \"#utility.yul\":282:361   */\n              tag_56\n              tag_57\n              jump\t// in\n            tag_56:\n                /* \"#utility.yul\":251:363   */\n            tag_55:\n                /* \"#utility.yul\":372:413   */\n              tag_58\n                /* \"#utility.yul\":406:412   */\n              dup5\n                /* \"#utility.yul\":401:404   */\n              dup3\n                /* \"#utility.yul\":396:399   */\n              dup6\n                /* \"#utility.yul\":372:413   */\n              tag_59\n              jump\t// in\n            tag_58:\n                /* \"#utility.yul\":91:419   */\n              pop\n                /* \"#utility.yul\":7:419   */\n              swap4\n              swap3\n              pop\n              pop\n              pop\n              jump\t// out\n                /* \"#utility.yul\":439:779   */\n            tag_60:\n                /* \"#utility.yul\":495:500   */\n              0x00\n                /* \"#utility.yul\":544:547   */\n              dup3\n                /* \"#utility.yul\":537:541   */\n              0x1f\n                /* \"#utility.yul\":529:535   */\n              dup4\n                /* \"#utility.yul\":525:542   */\n              add\n                /* \"#utility.yul\":521:548   */\n              slt\n                /* \"#utility.yul\":511:633   */\n              tag_62\n              jumpi\n                /* \"#utility.yul\":552:631   */\n              tag_63\n              tag_64\n              jump\t// in\n            tag_63:\n                /* \"#utility.yul\":511:633   */\n            tag_62:\n                /* \"#utility.yul\":669:675   */\n              dup2\n                /* \"#utility.yul\":656:676   */\n              calldataload\n                /* \"#utility.yul\":694:773   */\n              tag_65\n                /* \"#utility.yul\":769:772   */\n              dup5\n                /* \"#utility.yul\":761:767   */\n              dup3\n                /* \"#utility.yul\":754:758   */\n              0x20\n                /* \"#utility.yul\":746:752   */\n              dup7\n                /* \"#utility.yul\":742:759   */\n              add\n                /* \"#utility.yul\":694:773   */\n              tag_49\n              jump\t// in\n            tag_65:\n                /* \"#utility.yul\":685:773   */\n              swap2\n              pop\n                /* \"#utility.yul\":501:779   */\n              pop\n                /* \"#utility.yul\":439:779   */\n              swap3\n              swap2\n              pop\n              pop\n              jump\t// out\n                /* \"#utility.yul\":785:924   */\n            tag_66:\n                /* \"#utility.yul\":831:836   */\n              0x00\n                /* \"#utility.yul\":869:875   */\n              dup2\n                /* \"#utility.yul\":856:876   */\n              calldataload\n                /* \"#utility.yul\":847:876   */\n              swap1\n              pop\n                /* \"#utility.yul\":885:918   */\n              tag_68\n                /* \"#utility.yul\":912:917   */\n              dup2\n                /* \"#utility.yul\":885:918   */\n              tag_69\n              jump\t// in\n            tag_68:\n                /* \"#utility.yul\":785:924   */\n              swap3\n              swap2\n              pop\n              pop\n              jump\t// out\n                /* \"#utility.yul\":930:1584   */\n            tag_17:\n                /* \"#utility.yul\":1008:1014   */\n              0x00\n                /* \"#utility.yul\":1016:1022   */\n              dup1\n                /* \"#utility.yul\":1065:1067   */\n              0x40\n                /* \"#utility.yul\":1053:1062   */\n              dup4\n                /* \"#utility.yul\":1044:1051   */\n              dup6\n                /* \"#utility.yul\":1040:1063   */\n              sub\n                /* \"#utility.yul\":1036:1068   */\n              slt\n                /* \"#utility.yul\":1033:1152   */\n              iszero\n              tag_71\n              jumpi\n                /* \"#utility.yul\":1071:1150   */\n              tag_72\n              tag_73\n              jump\t// in\n            tag_72:\n                /* \"#utility.yul\":1033:1152   */\n            tag_71:\n                /* \"#utility.yul\":1219:1220   */\n              0x00\n                /* \"#utility.yul\":1208:1217   */\n              dup4\n                /* \"#utility.yul\":1204:1221   */\n              add\n                /* \"#utility.yul\":1191:1222   */\n              calldataload\n                /* \"#utility.yul\":1249:1267   */\n              0xffffffffffffffff\n                /* \"#utility.yul\":1241:1247   */\n              dup2\n                /* \"#utility.yul\":1238:1268   */\n              gt\n                /* \"#utility.yul\":1235:1352   */\n              iszero\n              tag_74\n              jumpi\n                /* \"#utility.yul\":1271:1350   */\n              tag_75\n              tag_76\n              jump\t// in\n            tag_75:\n                /* \"#utility.yul\":1235:1352   */\n            tag_74:\n                /* \"#utility.yul\":1376:1439   */\n              tag_77\n                /* \"#utility.yul\":1431:1438   */\n              dup6\n                /* \"#utility.yul\":1422:1428   */\n              dup3\n                /* \"#utility.yul\":1411:1420   */\n              dup7\n                /* \"#utility.yul\":1407:1429   */\n              add\n                /* \"#utility.yul\":1376:1439   */\n              tag_60\n              jump\t// in\n            tag_77:\n                /* \"#utility.yul\":1366:1439   */\n              swap3\n              pop\n                /* \"#utility.yul\":1162:1449   */\n              pop\n                /* \"#utility.yul\":1488:1490   */\n              0x20\n                /* \"#utility.yul\":1514:1567   */\n              tag_78\n                /* \"#utility.yul\":1559:1566   */\n              dup6\n                /* \"#utility.yul\":1550:1556   */\n              dup3\n                /* \"#utility.yul\":1539:1548   */\n              dup7\n                /* \"#utility.yul\":1535:1557   */\n              add\n                /* \"#utility.yul\":1514:1567   */\n              tag_66\n              jump\t// in\n            tag_78:\n                /* \"#utility.yul\":1504:1567   */\n              swap2\n              pop\n                /* \"#utility.yul\":1459:1577   */\n              pop\n                /* \"#utility.yul\":930:1584   */\n              swap3\n              pop\n              swap3\n              swap1\n              pop\n              jump\t// out\n                /* \"#utility.yul\":1590:1919   */\n            tag_13:\n                /* \"#utility.yul\":1649:1655   */\n              0x00\n                /* \"#utility.yul\":1698:1700   */\n              0x20\n                /* \"#utility.yul\":1686:1695   */\n              dup3\n                /* \"#utility.yul\":1677:1684   */\n              dup5\n                /* \"#utility.yul\":1673:1696   */\n              sub\n                /* \"#utility.yul\":1669:1701   */\n              slt\n                /* \"#utility.yul\":1666:1785   */\n              iszero\n              tag_80\n              jumpi\n                /* \"#utility.yul\":1704:1783   */\n              tag_81\n              tag_73\n              jump\t// in\n            tag_81:\n                /* \"#utility.yul\":1666:1785   */\n            tag_80:\n                /* \"#utility.yul\":1824:1825   */\n              0x00\n                /* \"#utility.yul\":1849:1902   */\n              tag_82\n                /* \"#utility.yul\":1894:1901   */\n              dup5\n                /* \"#utility.yul\":1885:1891   */\n              dup3\n                /* \"#utility.yul\":1874:1883   */\n              dup6\n                /* \"#utility.yul\":1870:1892   */\n              add\n                /* \"#utility.yul\":1849:1902   */\n              tag_66\n              jump\t// in\n            tag_82:\n                /* \"#utility.yul\":1839:1902   */\n              swap2\n              pop\n                /* \"#utility.yul\":1795:1912   */\n              pop\n                /* \"#utility.yul\":1590:1919   */\n              swap3\n              swap2\n              pop\n              pop\n              jump\t// out\n                /* \"#utility.yul\":1925:2289   */\n            tag_83:\n                /* \"#utility.yul\":2013:2016   */\n              0x00\n                /* \"#utility.yul\":2041:2080   */\n              tag_85\n                /* \"#utility.yul\":2074:2079   */\n              dup3\n                /* \"#utility.yul\":2041:2080   */\n              tag_86\n              jump\t// in\n            tag_85:\n                /* \"#utility.yul\":2096:2167   */\n              tag_87\n                /* \"#utility.yul\":2160:2166   */\n              dup2\n                /* \"#utility.yul\":2155:2158   */\n              dup6\n                /* \"#utility.yul\":2096:2167   */\n              tag_88\n              jump\t// in\n            tag_87:\n                /* \"#utility.yul\":2089:2167   */\n              swap4\n              pop\n                /* \"#utility.yul\":2176:2228   */\n              tag_89\n                /* \"#utility.yul\":2221:2227   */\n              dup2\n                /* \"#utility.yul\":2216:2219   */\n              dup6\n                /* \"#utility.yul\":2209:2213   */\n              0x20\n                /* \"#utility.yul\":2202:2207   */\n              dup7\n                /* \"#utility.yul\":2198:2214   */\n              add\n                /* \"#utility.yul\":2176:2228   */\n              tag_90\n              jump\t// in\n            tag_89:\n                /* \"#utility.yul\":2253:2282   */\n              tag_91\n                /* \"#utility.yul\":2275:2281   */\n              dup2\n                /* \"#utility.yul\":2253:2282   */\n              tag_92\n              jump\t// in\n            tag_91:\n                /* \"#utility.yul\":2248:2251   */\n              dup5\n                /* \"#utility.yul\":2244:2283   */\n              add\n                /* \"#utility.yul\":2237:2283   */\n              swap2\n              pop\n                /* \"#utility.yul\":2017:2289   */\n              pop\n                /* \"#utility.yul\":1925:2289   */\n              swap3\n              swap2\n              pop\n              pop\n              jump\t// out\n                /* \"#utility.yul\":2295:2413   */\n            tag_93:\n                /* \"#utility.yul\":2382:2406   */\n              tag_95\n                /* \"#utility.yul\":2400:2405   */\n              dup2\n                /* \"#utility.yul\":2382:2406   */\n              tag_96\n              jump\t// in\n            tag_95:\n                /* \"#utility.yul\":2377:2380   */\n              dup3\n                /* \"#utility.yul\":2370:2407   */\n              mstore\n                /* \"#utility.yul\":2295:2413   */\n              pop\n              pop\n              jump\t// out\n                /* \"#utility.yul\":2419:2641   */\n            tag_10:\n                /* \"#utility.yul\":2512:2516   */\n              0x00\n                /* \"#utility.yul\":2550:2552   */\n              0x20\n                /* \"#utility.yul\":2539:2548   */\n              dup3\n                /* \"#utility.yul\":2535:2553   */\n              add\n                /* \"#utility.yul\":2527:2553   */\n              swap1\n              pop\n                /* \"#utility.yul\":2563:2634   */\n              tag_98\n                /* \"#utility.yul\":2631:2632   */\n              0x00\n                /* \"#utility.yul\":2620:2629   */\n              dup4\n                /* \"#utility.yul\":2616:2633   */\n              add\n                /* \"#utility.yul\":2607:2613   */\n              dup5\n                /* \"#utility.yul\":2563:2634   */\n              tag_93\n              jump\t// in\n            tag_98:\n                /* \"#utility.yul\":2419:2641   */\n              swap3\n              swap2\n              pop\n              pop\n              jump\t// out\n                /* \"#utility.yul\":2647:3070   */\n            tag_23:\n                /* \"#utility.yul\":2788:2792   */\n              0x00\n                /* \"#utility.yul\":2826:2828   */\n              0x40\n                /* \"#utility.yul\":2815:2824   */\n              dup3\n                /* \"#utility.yul\":2811:2829   */\n              add\n                /* \"#utility.yul\":2803:2829   */\n              swap1\n              pop\n                /* \"#utility.yul\":2839:2910   */\n              tag_100\n                /* \"#utility.yul\":2907:2908   */\n              0x00\n                /* \"#utility.yul\":2896:2905   */\n              dup4\n                /* \"#utility.yul\":2892:2909   */\n              add\n                /* \"#utility.yul\":2883:2889   */\n              dup6\n                /* \"#utility.yul\":2839:2910   */\n              tag_93\n              jump\t// in\n            tag_100:\n                /* \"#utility.yul\":2957:2966   */\n              dup2\n                /* \"#utility.yul\":2951:2955   */\n              dup2\n                /* \"#utility.yul\":2947:2967   */\n              sub\n                /* \"#utility.yul\":2942:2944   */\n              0x20\n                /* \"#utility.yul\":2931:2940   */\n              dup4\n                /* \"#utility.yul\":2927:2945   */\n              add\n                /* \"#utility.yul\":2920:2968   */\n              mstore\n                /* \"#utility.yul\":2985:3063   */\n              tag_101\n                /* \"#utility.yul\":3058:3062   */\n              dup2\n                /* \"#utility.yul\":3049:3055   */\n              dup5\n                /* \"#utility.yul\":2985:3063   */\n              tag_83\n              jump\t// in\n            tag_101:\n                /* \"#utility.yul\":2977:3063   */\n              swap1\n              pop\n                /* \"#utility.yul\":2647:3070   */\n              swap4\n              swap3\n              pop\n              pop\n              pop\n              jump\t// out\n                /* \"#utility.yul\":3076:3205   */\n            tag_54:\n                /* \"#utility.yul\":3110:3116   */\n              0x00\n                /* \"#utility.yul\":3137:3157   */\n              tag_103\n              tag_104\n              jump\t// in\n            tag_103:\n                /* \"#utility.yul\":3127:3157   */\n              swap1\n              pop\n                /* \"#utility.yul\":3166:3199   */\n              tag_105\n                /* \"#utility.yul\":3194:3198   */\n              dup3\n                /* \"#utility.yul\":3186:3192   */\n              dup3\n                /* \"#utility.yul\":3166:3199   */\n              tag_106\n              jump\t// in\n            tag_105:\n                /* \"#utility.yul\":3076:3205   */\n              swap2\n              swap1\n              pop\n              jump\t// out\n                /* \"#utility.yul\":3211:3286   */\n            tag_104:\n                /* \"#utility.yul\":3244:3250   */\n              0x00\n                /* \"#utility.yul\":3277:3279   */\n              0x40\n                /* \"#utility.yul\":3271:3280   */\n              mload\n                /* \"#utility.yul\":3261:3280   */\n              swap1\n              pop\n                /* \"#utility.yul\":3211:3286   */\n              swap1\n              jump\t// out\n                /* \"#utility.yul\":3292:3600   */\n            tag_53:\n                /* \"#utility.yul\":3354:3358   */\n              0x00\n                /* \"#utility.yul\":3444:3462   */\n              0xffffffffffffffff\n                /* \"#utility.yul\":3436:3442   */\n              dup3\n                /* \"#utility.yul\":3433:3463   */\n              gt\n                /* \"#utility.yul\":3430:3486   */\n              iszero\n              tag_109\n              jumpi\n                /* \"#utility.yul\":3466:3484   */\n              tag_110\n              tag_111\n              jump\t// in\n            tag_110:\n                /* \"#utility.yul\":3430:3486   */\n            tag_109:\n                /* \"#utility.yul\":3504:3533   */\n              tag_112\n                /* \"#utility.yul\":3526:3532   */\n              dup3\n                /* \"#utility.yul\":3504:3533   */\n              tag_92\n              jump\t// in\n            tag_112:\n                /* \"#utility.yul\":3496:3533   */\n              swap1\n              pop\n                /* \"#utility.yul\":3588:3592   */\n              0x20\n                /* \"#utility.yul\":3582:3586   */\n              dup2\n                /* \"#utility.yul\":3578:3593   */\n              add\n                /* \"#utility.yul\":3570:3593   */\n              swap1\n              pop\n                /* \"#utility.yul\":3292:3600   */\n              swap2\n              swap1\n              pop\n              jump\t// out\n                /* \"#utility.yul\":3606:3705   */\n            tag_86:\n                /* \"#utility.yul\":3658:3664   */\n              0x00\n                /* \"#utility.yul\":3692:3697   */\n              dup2\n                /* \"#utility.yul\":3686:3698   */\n              mload\n                /* \"#utility.yul\":3676:3698   */\n              swap1\n              pop\n                /* \"#utility.yul\":3606:3705   */\n              swap2\n              swap1\n              pop\n              jump\t// out\n                /* \"#utility.yul\":3711:3880   */\n            tag_88:\n                /* \"#utility.yul\":3795:3806   */\n              0x00\n                /* \"#utility.yul\":3829:3835   */\n              dup3\n                /* \"#utility.yul\":3824:3827   */\n              dup3\n                /* \"#utility.yul\":3817:3836   */\n              mstore\n                /* \"#utility.yul\":3869:3873   */\n              0x20\n                /* \"#utility.yul\":3864:3867   */\n              dup3\n                /* \"#utility.yul\":3860:3874   */\n              add\n                /* \"#utility.yul\":3845:3874   */\n              swap1\n              pop\n                /* \"#utility.yul\":3711:3880   */\n              swap3\n              swap2\n              pop\n              pop\n              jump\t// out\n                /* \"#utility.yul\":3886:3963   */\n            tag_96:\n                /* \"#utility.yul\":3923:3930   */\n              0x00\n                /* \"#utility.yul\":3952:3957   */\n              dup2\n                /* \"#utility.yul\":3941:3957   */\n              swap1\n              pop\n                /* \"#utility.yul\":3886:3963   */\n              swap2\n              swap1\n              pop\n              jump\t// out\n                /* \"#utility.yul\":3969:4123   */\n            tag_59:\n                /* \"#utility.yul\":4053:4059   */\n              dup3\n                /* \"#utility.yul\":4048:4051   */\n              dup2\n                /* \"#utility.yul\":4043:4046   */\n              dup4\n                /* \"#utility.yul\":4030:4060   */\n              calldatacopy\n                /* \"#utility.yul\":4115:4116   */\n              0x00\n                /* \"#utility.yul\":4106:4112   */\n              dup4\n                /* \"#utility.yul\":4101:4104   */\n              dup4\n                /* \"#utility.yul\":4097:4113   */\n              add\n                /* \"#utility.yul\":4090:4117   */\n              mstore\n                /* \"#utility.yul\":3969:4123   */\n              pop\n              pop\n              pop\n              jump\t// out\n                /* \"#utility.yul\":4129:4436   */\n            tag_90:\n                /* \"#utility.yul\":4197:4198   */\n              0x00\n                /* \"#utility.yul\":4207:4320   */\n            tag_118:\n                /* \"#utility.yul\":4221:4227   */\n              dup4\n                /* \"#utility.yul\":4218:4219   */\n              dup2\n                /* \"#utility.yul\":4215:4228   */\n              lt\n                /* \"#utility.yul\":4207:4320   */\n              iszero\n              tag_120\n              jumpi\n                /* \"#utility.yul\":4306:4307   */\n              dup1\n                /* \"#utility.yul\":4301:4304   */\n              dup3\n                /* \"#utility.yul\":4297:4308   */\n              add\n                /* \"#utility.yul\":4291:4309   */\n              mload\n                /* \"#utility.yul\":4287:4288   */\n              dup2\n                /* \"#utility.yul\":4282:4285   */\n              dup5\n                /* \"#utility.yul\":4278:4289   */\n              add\n                /* \"#utility.yul\":4271:4310   */\n              mstore\n                /* \"#utility.yul\":4243:4245   */\n              0x20\n                /* \"#utility.yul\":4240:4241   */\n              dup2\n                /* \"#utility.yul\":4236:4246   */\n              add\n                /* \"#utility.yul\":4231:4246   */\n              swap1\n              pop\n                /* \"#utility.yul\":4207:4320   */\n              jump(tag_118)\n            tag_120:\n                /* \"#utility.yul\":4338:4344   */\n              dup4\n                /* \"#utility.yul\":4335:4336   */\n              dup2\n                /* \"#utility.yul\":4332:4345   */\n              gt\n                /* \"#utility.yul\":4329:4430   */\n              iszero\n              tag_121\n              jumpi\n                /* \"#utility.yul\":4418:4419   */\n              0x00\n                /* \"#utility.yul\":4409:4415   */\n              dup5\n                /* \"#utility.yul\":4404:4407   */\n              dup5\n                /* \"#utility.yul\":4400:4416   */\n              add\n                /* \"#utility.yul\":4393:4420   */\n              mstore\n                /* \"#utility.yul\":4329:4430   */\n            tag_121:\n                /* \"#utility.yul\":4178:4436   */\n              pop\n                /* \"#utility.yul\":4129:4436   */\n              pop\n              pop\n              pop\n              jump\t// out\n                /* \"#utility.yul\":4442:4762   */\n            tag_33:\n                /* \"#utility.yul\":4486:4492   */\n              0x00\n                /* \"#utility.yul\":4523:4524   */\n              0x02\n                /* \"#utility.yul\":4517:4521   */\n              dup3\n                /* \"#utility.yul\":4513:4525   */\n              div\n                /* \"#utility.yul\":4503:4525   */\n              swap1\n              pop\n                /* \"#utility.yul\":4570:4571   */\n              0x01\n                /* \"#utility.yul\":4564:4568   */\n              dup3\n                /* \"#utility.yul\":4560:4572   */\n              and\n                /* \"#utility.yul\":4591:4609   */\n              dup1\n                /* \"#utility.yul\":4581:4662   */\n              tag_123\n              jumpi\n                /* \"#utility.yul\":4647:4651   */\n              0x7f\n                /* \"#utility.yul\":4639:4645   */\n              dup3\n                /* \"#utility.yul\":4635:4652   */\n              and\n                /* \"#utility.yul\":4625:4652   */\n              swap2\n              pop\n                /* \"#utility.yul\":4581:4662   */\n            tag_123:\n                /* \"#utility.yul\":4709:4711   */\n              0x20\n                /* \"#utility.yul\":4701:4707   */\n              dup3\n                /* \"#utility.yul\":4698:4712   */\n              lt\n                /* \"#utility.yul\":4678:4696   */\n              dup2\n                /* \"#utility.yul\":4675:4713   */\n              eq\n                /* \"#utility.yul\":4672:4756   */\n              iszero\n              tag_124\n              jumpi\n                /* \"#utility.yul\":4728:4746   */\n              tag_125\n              tag_126\n              jump\t// in\n            tag_125:\n                /* \"#utility.yul\":4672:4756   */\n            tag_124:\n                /* \"#utility.yul\":4493:4762   */\n              pop\n                /* \"#utility.yul\":4442:4762   */\n              swap2\n              swap1\n              pop\n              jump\t// out\n                /* \"#utility.yul\":4768:5049   */\n            tag_106:\n                /* \"#utility.yul\":4851:4878   */\n              tag_128\n                /* \"#utility.yul\":4873:4877   */\n              dup3\n                /* \"#utility.yul\":4851:4878   */\n              tag_92\n              jump\t// in\n            tag_128:\n                /* \"#utility.yul\":4843:4849   */\n              dup2\n                /* \"#utility.yul\":4839:4879   */\n              add\n                /* \"#utility.yul\":4981:4987   */\n              dup2\n                /* \"#utility.yul\":4969:4979   */\n              dup2\n                /* \"#utility.yul\":4966:4988   */\n              lt\n                /* \"#utility.yul\":4945:4963   */\n              0xffffffffffffffff\n                /* \"#utility.yul\":4933:4943   */\n              dup3\n                /* \"#utility.yul\":4930:4964   */\n              gt\n                /* \"#utility.yul\":4927:4989   */\n              or\n                /* \"#utility.yul\":4924:5012   */\n              iszero\n              tag_129\n              jumpi\n                /* \"#utility.yul\":4992:5010   */\n              tag_130\n              tag_111\n              jump\t// in\n            tag_130:\n                /* \"#utility.yul\":4924:5012   */\n            tag_129:\n                /* \"#utility.yul\":5032:5042   */\n              dup1\n                /* \"#utility.yul\":5028:5030   */\n              0x40\n                /* \"#utility.yul\":5021:5043   */\n              mstore\n                /* \"#utility.yul\":4811:5049   */\n              pop\n                /* \"#utility.yul\":4768:5049   */\n              pop\n              pop\n              jump\t// out\n                /* \"#utility.yul\":5055:5235   */\n            tag_126:\n                /* \"#utility.yul\":5103:5180   */\n              0x4e487b7100000000000000000000000000000000000000000000000000000000\n                /* \"#utility.yul\":5100:5101   */\n              0x00\n                /* \"#utility.yul\":5093:5181   */\n              mstore\n                /* \"#utility.yul\":5200:5204   */\n              0x22\n                /* \"#utility.yul\":5197:5198   */\n              0x04\n                /* \"#utility.yul\":5190:5205   */\n              mstore\n                /* \"#utility.yul\":5224:5228   */\n              0x24\n                /* \"#utility.yul\":5221:5222   */\n              0x00\n                /* \"#utility.yul\":5214:5229   */\n              revert\n                /* \"#utility.yul\":5241:5421   */\n            tag_111:\n                /* \"#utility.yul\":5289:5366   */\n              0x4e487b7100000000000000000000000000000000000000000000000000000000\n                /* \"#utility.yul\":5286:5287   */\n              0x00\n                /* \"#utility.yul\":5279:5367   */\n              mstore\n                /* \"#utility.yul\":5386:5390   */\n              0x41\n                /* \"#utility.yul\":5383:5384   */\n              0x04\n                /* \"#utility.yul\":5376:5391   */\n              mstore\n                /* \"#utility.yul\":5410:5414   */\n              0x24\n                /* \"#utility.yul\":5407:5408   */\n              0x00\n                /* \"#utility.yul\":5400:5415   */\n              revert\n                /* \"#utility.yul\":5427:5544   */\n            tag_64:\n                /* \"#utility.yul\":5536:5537   */\n              0x00\n                /* \"#utility.yul\":5533:5534   */\n              dup1\n                /* \"#utility.yul\":5526:5538   */\n              revert\n                /* \"#utility.yul\":5550:5667   */\n            tag_57:\n                /* \"#utility.yul\":5659:5660   */\n              0x00\n                /* \"#utility.yul\":5656:5657   */\n              dup1\n                /* \"#utility.yul\":5649:5661   */\n              revert\n                /* \"#utility.yul\":5673:5790   */\n            tag_76:\n                /* \"#utility.yul\":5782:5783   */\n              0x00\n                /* \"#utility.yul\":5779:5780   */\n              dup1\n                /* \"#utility.yul\":5772:5784   */\n              revert\n                /* \"#utility.yul\":5796:5913   */\n            tag_73:\n                /* \"#utility.yul\":5905:5906   */\n              0x00\n                /* \"#utility.yul\":5902:5903   */\n              dup1\n                /* \"#utility.yul\":5895:5907   */\n              revert\n                /* \"#utility.yul\":5919:6021   */\n            tag_92:\n                /* \"#utility.yul\":5960:5966   */\n              0x00\n                /* \"#utility.yul\":6011:6013   */\n              0x1f\n                /* \"#utility.yul\":6007:6014   */\n              not\n                /* \"#utility.yul\":6002:6004   */\n              0x1f\n                /* \"#utility.yul\":5995:6000   */\n              dup4\n                /* \"#utility.yul\":5991:6005   */\n              add\n                /* \"#utility.yul\":5987:6015   */\n              and\n                /* \"#utility.yul\":5977:6015   */\n              swap1\n              pop\n                /* \"#utility.yul\":5919:6021   */\n              swap2\n              swap1\n              pop\n              jump\t// out\n                /* \"#utility.yul\":6027:6149   */\n            tag_69:\n                /* \"#utility.yul\":6100:6124   */\n              tag_139\n                /* \"#utility.yul\":6118:6123   */\n              dup2\n                /* \"#utility.yul\":6100:6124   */\n              tag_96\n              jump\t// in\n            tag_139:\n                /* \"#utility.yul\":6093:6098   */\n              dup2\n                /* \"#utility.yul\":6090:6125   */\n              eq\n                /* \"#utility.yul\":6080:6143   */\n              tag_140\n              jumpi\n                /* \"#utility.yul\":6139:6140   */\n              0x00\n                /* \"#utility.yul\":6136:6137   */\n              dup1\n                /* \"#utility.yul\":6129:6141   */\n              revert\n                /* \"#utility.yul\":6080:6143   */\n            tag_140:\n                /* \"#utility.yul\":6027:6149   */\n              pop\n              jump\t// out\n\n            auxdata: 0xa2646970667358221220f98e4f2902e3663aeb8b706a4770375060a0b38a743657687d85057e78b91d2364736f6c63430008070033\n        }\n    }\n\n    auxdata: 0xa2646970667358221220d7d2183e4c1d0ae30a1375a4a4f144882bfe37b238ae7c5f1c9045287b02ed8c64736f6c63430008070033\n}\n",
				"bytecode": {
					"linkReferences": {},
					"object": "608060405234801561001057600080fd5b50610a4d806100206000396000f3fe608060405234801561001057600080fd5b50600436106100415760003560e01c80631563700f146100465780631dda65411461006257806364591bf11461006c575b600080fd5b610060600480360381019061005b919061026f565b61009c565b005b61006a61014e565b005b61008660048036038101906100819190610242565b6101e1565b60405161009391906102cd565b60405180910390f35b60008083815481106100b1576100b0610363565b5b9060005260206000200160009054906101000a900473ffffffffffffffffffffffffffffffffffffffff1690508073ffffffffffffffffffffffffffffffffffffffff16636057361d836040518263ffffffff1660e01b815260040161011791906102e8565b600060405180830381600087803b15801561013157600080fd5b505af1158015610145573d6000803e3d6000fd5b50505050505050565b600060405161015c90610220565b604051809103906000f080158015610178573d6000803e3d6000fd5b5090506000819080600181540180825580915050600190039060005260206000200160009091909190916101000a81548173ffffffffffffffffffffffffffffffffffffffff021916908373ffffffffffffffffffffffffffffffffffffffff16021790555050565b600081815481106101f157600080fd5b906000526020600020016000915054906101000a900473ffffffffffffffffffffffffffffffffffffffff1681565b610669806103af83390190565b60008135905061023c81610397565b92915050565b60006020828403121561025857610257610392565b5b60006102668482850161022d565b91505092915050565b6000806040838503121561028657610285610392565b5b60006102948582860161022d565b92505060206102a58582860161022d565b9150509250929050565b6102b88161032d565b82525050565b6102c781610323565b82525050565b60006020820190506102e260008301846102af565b92915050565b60006020820190506102fd60008301846102be565b92915050565b600073ffffffffffffffffffffffffffffffffffffffff82169050919050565b6000819050919050565b60006103388261033f565b9050919050565b600061034a82610351565b9050919050565b600061035c82610303565b9050919050565b7f4e487b7100000000000000000000000000000000000000000000000000000000600052603260045260246000fd5b600080fd5b6103a081610323565b81146103ab57600080fd5b5056fe608060405234801561001057600080fd5b50610649806100206000396000f3fe608060405234801561001057600080fd5b506004361061004c5760003560e01c80632e64cec1146100515780636057361d1461006f5780636f760f411461008b5780639e7a13ad146100a7575b600080fd5b6100596100d8565b604051610066919061040d565b60405180910390f35b61008960048036038101906100849190610398565b6100e1565b005b6100a560048036038101906100a0919061033c565b6100eb565b005b6100c160048036038101906100bc9190610398565b610158565b6040516100cf929190610428565b60405180910390f35b60008054905090565b8060008190555050565b60016040518060400160405280838152602001848152509080600181540180825580915050600190039060005260206000209060020201600090919091909150600082015181600001556020820151816001019080519060200190610151929190610214565b5050505050565b6001818154811061016857600080fd5b906000526020600020906002020160009150905080600001549080600101805461019190610516565b80601f01602080910402602001604051908101604052809291908181526020018280546101bd90610516565b801561020a5780601f106101df5761010080835404028352916020019161020a565b820191906000526020600020905b8154815290600101906020018083116101ed57829003601f168201915b5050505050905082565b82805461022090610516565b90600052602060002090601f0160209004810192826102425760008555610289565b82601f1061025b57805160ff1916838001178555610289565b82800160010185558215610289579182015b8281111561028857825182559160200191906001019061026d565b5b509050610296919061029a565b5090565b5b808211156102b357600081600090555060010161029b565b5090565b60006102ca6102c58461047d565b610458565b9050828152602081018484840111156102e6576102e56105dc565b5b6102f18482856104d4565b509392505050565b600082601f83011261030e5761030d6105d7565b5b813561031e8482602086016102b7565b91505092915050565b600081359050610336816105fc565b92915050565b60008060408385031215610353576103526105e6565b5b600083013567ffffffffffffffff811115610371576103706105e1565b5b61037d858286016102f9565b925050602061038e85828601610327565b9150509250929050565b6000602082840312156103ae576103ad6105e6565b5b60006103bc84828501610327565b91505092915050565b60006103d0826104ae565b6103da81856104b9565b93506103ea8185602086016104e3565b6103f3816105eb565b840191505092915050565b610407816104ca565b82525050565b600060208201905061042260008301846103fe565b92915050565b600060408201905061043d60008301856103fe565b818103602083015261044f81846103c5565b90509392505050565b6000610462610473565b905061046e8282610548565b919050565b6000604051905090565b600067ffffffffffffffff821115610498576104976105a8565b5b6104a1826105eb565b9050602081019050919050565b600081519050919050565b600082825260208201905092915050565b6000819050919050565b82818337600083830152505050565b60005b838110156105015780820151818401526020810190506104e6565b83811115610510576000848401525b50505050565b6000600282049050600182168061052e57607f821691505b6020821081141561054257610541610579565b5b50919050565b610551826105eb565b810181811067ffffffffffffffff821117156105705761056f6105a8565b5b80604052505050565b7f4e487b7100000000000000000000000000000000000000000000000000000000600052602260045260246000fd5b7f4e487b7100000000000000000000000000000000000000000000000000000000600052604160045260246000fd5b600080fd5b600080fd5b600080fd5b600080fd5b6000601f19601f8301169050919050565b610605816104ca565b811461061057600080fd5b5056fea2646970667358221220f98e4f2902e3663aeb8b706a4770375060a0b38a743657687d85057e78b91d2364736f6c63430008070033a2646970667358221220d7d2183e4c1d0ae30a1375a4a4f144882bfe37b238ae7c5f1c9045287b02ed8c64736f6c63430008070033",
					"opcodes": "PUSH1 0x80 PUSH1 0x40 MSTORE CALLVALUE DUP1 ISZERO PUSH2 0x10 JUMPI PUSH1 0x0 DUP1 REVERT JUMPDEST POP PUSH2 0xA4D DUP1 PUSH2 0x20 PUSH1 0x0 CODECOPY PUSH1 0x0 RETURN INVALID PUSH1 0x80 PUSH1 0x40 MSTORE CALLVALUE DUP1 ISZERO PUSH2 0x10 JUMPI PUSH1 0x0 DUP1 REVERT JUMPDEST POP PUSH1 0x4 CALLDATASIZE LT PUSH2 0x41 JUMPI PUSH1 0x0 CALLDATALOAD PUSH1 0xE0 SHR DUP1 PUSH4 0x1563700F EQ PUSH2 0x46 JUMPI DUP1 PUSH4 0x1DDA6541 EQ PUSH2 0x62 JUMPI DUP1 PUSH4 0x64591BF1 EQ PUSH2 0x6C JUMPI JUMPDEST PUSH1 0x0 DUP1 REVERT JUMPDEST PUSH2 0x60 PUSH1 0x4 DUP1 CALLDATASIZE SUB DUP2 ADD SWAP1 PUSH2 0x5B SWAP2 SWAP1 PUSH2 0x26F JUMP JUMPDEST PUSH2 0x9C JUMP JUMPDEST STOP JUMPDEST PUSH2 0x6A PUSH2 0x14E JUMP JUMPDEST STOP JUMPDEST PUSH2 0x86 PUSH1 0x4 DUP1 CALLDATASIZE SUB DUP2 ADD SWAP1 PUSH2 0x81 SWAP2 SWAP1 PUSH2 0x242 JUMP JUMPDEST PUSH2 0x1E1 JUMP JUMPDEST PUSH1 0x40 MLOAD PUSH2 0x93 SWAP2 SWAP1 PUSH2 0x2CD JUMP JUMPDEST PUSH1 0x40 MLOAD DUP1 SWAP2 SUB SWAP1 RETURN JUMPDEST PUSH1 0x0 DUP1 DUP4 DUP2 SLOAD DUP2 LT PUSH2 0xB1 JUMPI PUSH2 0xB0 PUSH2 0x363 JUMP JUMPDEST JUMPDEST SWAP1 PUSH1 0x0 MSTORE PUSH1 0x20 PUSH1 0x0 KECCAK256 ADD PUSH1 0x0 SWAP1 SLOAD SWAP1 PUSH2 0x100 EXP SWAP1 DIV PUSH20 0xFFFFFFFFFFFFFFFFFFFFFFFFFFFFFFFFFFFFFFFF AND SWAP1 POP DUP1 PUSH20 0xFFFFFFFFFFFFFFFFFFFFFFFFFFFFFFFFFFFFFFFF AND PUSH4 0x6057361D DUP4 PUSH1 0x40 MLOAD DUP3 PUSH4 0xFFFFFFFF AND PUSH1 0xE0 SHL DUP2 MSTORE PUSH1 0x4 ADD PUSH2 0x117 SWAP2 SWAP1 PUSH2 0x2E8 JUMP JUMPDEST PUSH1 0x0 PUSH1 0x40 MLOAD DUP1 DUP4 SUB DUP2 PUSH1 0x0 DUP8 DUP1 EXTCODESIZE ISZERO DUP1 ISZERO PUSH2 0x131 JUMPI PUSH1 0x0 DUP1 REVERT JUMPDEST POP GAS CALL ISZERO DUP1 ISZERO PUSH2 0x145 JUMPI RETURNDATASIZE PUSH1 0x0 DUP1 RETURNDATACOPY RETURNDATASIZE PUSH1 0x0 REVERT JUMPDEST POP POP POP POP POP POP POP JUMP JUMPDEST PUSH1 0x0 PUSH1 0x40 MLOAD PUSH2 0x15C SWAP1 PUSH2 0x220 JUMP JUMPDEST PUSH1 0x40 MLOAD DUP1 SWAP2 SUB SWAP1 PUSH1 0x0 CREATE DUP1 ISZERO DUP1 ISZERO PUSH2 0x178 JUMPI RETURNDATASIZE PUSH1 0x0 DUP1 RETURNDATACOPY RETURNDATASIZE PUSH1 0x0 REVERT JUMPDEST POP SWAP1 POP PUSH1 0x0 DUP2 SWAP1 DUP1 PUSH1 0x1 DUP2 SLOAD ADD DUP1 DUP3 SSTORE DUP1 SWAP2 POP POP PUSH1 0x1 SWAP1 SUB SWAP1 PUSH1 0x0 MSTORE PUSH1 0x20 PUSH1 0x0 KECCAK256 ADD PUSH1 0x0 SWAP1 SWAP2 SWAP1 SWAP2 SWAP1 SWAP2 PUSH2 0x100 EXP DUP2 SLOAD DUP2 PUSH20 0xFFFFFFFFFFFFFFFFFFFFFFFFFFFFFFFFFFFFFFFF MUL NOT AND SWAP1 DUP4 PUSH20 0xFFFFFFFFFFFFFFFFFFFFFFFFFFFFFFFFFFFFFFFF AND MUL OR SWAP1 SSTORE POP POP JUMP JUMPDEST PUSH1 0x0 DUP2 DUP2 SLOAD DUP2 LT PUSH2 0x1F1 JUMPI PUSH1 0x0 DUP1 REVERT JUMPDEST SWAP1 PUSH1 0x0 MSTORE PUSH1 0x20 PUSH1 0x0 KECCAK256 ADD PUSH1 0x0 SWAP2 POP SLOAD SWAP1 PUSH2 0x100 EXP SWAP1 DIV PUSH20 0xFFFFFFFFFFFFFFFFFFFFFFFFFFFFFFFFFFFFFFFF AND DUP2 JUMP JUMPDEST PUSH2 0x669 DUP1 PUSH2 0x3AF DUP4 CODECOPY ADD SWAP1 JUMP JUMPDEST PUSH1 0x0 DUP2 CALLDATALOAD SWAP1 POP PUSH2 0x23C DUP2 PUSH2 0x397 JUMP JUMPDEST SWAP3 SWAP2 POP POP JUMP JUMPDEST PUSH1 0x0 PUSH1 0x20 DUP3 DUP5 SUB SLT ISZERO PUSH2 0x258 JUMPI PUSH2 0x257 PUSH2 0x392 JUMP JUMPDEST JUMPDEST PUSH1 0x0 PUSH2 0x266 DUP5 DUP3 DUP6 ADD PUSH2 0x22D JUMP JUMPDEST SWAP2 POP POP SWAP3 SWAP2 POP POP JUMP JUMPDEST PUSH1 0x0 DUP1 PUSH1 0x40 DUP4 DUP6 SUB SLT ISZERO PUSH2 0x286 JUMPI PUSH2 0x285 PUSH2 0x392 JUMP JUMPDEST JUMPDEST PUSH1 0x0 PUSH2 0x294 DUP6 DUP3 DUP7 ADD PUSH2 0x22D JUMP JUMPDEST SWAP3 POP POP PUSH1 0x20 PUSH2 0x2A5 DUP6 DUP3 DUP7 ADD PUSH2 0x22D JUMP JUMPDEST SWAP2 POP POP SWAP3 POP SWAP3 SWAP1 POP JUMP JUMPDEST PUSH2 0x2B8 DUP2 PUSH2 0x32D JUMP JUMPDEST DUP3 MSTORE POP POP JUMP JUMPDEST PUSH2 0x2C7 DUP2 PUSH2 0x323 JUMP JUMPDEST DUP3 MSTORE POP POP JUMP JUMPDEST PUSH1 0x0 PUSH1 0x20 DUP3 ADD SWAP1 POP PUSH2 0x2E2 PUSH1 0x0 DUP4 ADD DUP5 PUSH2 0x2AF JUMP JUMPDEST SWAP3 SWAP2 POP POP JUMP JUMPDEST PUSH1 0x0 PUSH1 0x20 DUP3 ADD SWAP1 POP PUSH2 0x2FD PUSH1 0x0 DUP4 ADD DUP5 PUSH2 0x2BE JUMP JUMPDEST SWAP3 SWAP2 POP POP JUMP JUMPDEST PUSH1 0x0 PUSH20 0xFFFFFFFFFFFFFFFFFFFFFFFFFFFFFFFFFFFFFFFF DUP3 AND SWAP1 POP SWAP2 SWAP1 POP JUMP JUMPDEST PUSH1 0x0 DUP2 SWAP1 POP SWAP2 SWAP1 POP JUMP JUMPDEST PUSH1 0x0 PUSH2 0x338 DUP3 PUSH2 0x33F JUMP JUMPDEST SWAP1 POP SWAP2 SWAP1 POP JUMP JUMPDEST PUSH1 0x0 PUSH2 0x34A DUP3 PUSH2 0x351 JUMP JUMPDEST SWAP1 POP SWAP2 SWAP1 POP JUMP JUMPDEST PUSH1 0x0 PUSH2 0x35C DUP3 PUSH2 0x303 JUMP JUMPDEST SWAP1 POP SWAP2 SWAP1 POP JUMP JUMPDEST PUSH32 0x4E487B7100000000000000000000000000000000000000000000000000000000 PUSH1 0x0 MSTORE PUSH1 0x32 PUSH1 0x4 MSTORE PUSH1 0x24 PUSH1 0x0 REVERT JUMPDEST PUSH1 0x0 DUP1 REVERT JUMPDEST PUSH2 0x3A0 DUP2 PUSH2 0x323 JUMP JUMPDEST DUP2 EQ PUSH2 0x3AB JUMPI PUSH1 0x0 DUP1 REVERT JUMPDEST POP JUMP INVALID PUSH1 0x80 PUSH1 0x40 MSTORE CALLVALUE DUP1 ISZERO PUSH2 0x10 JUMPI PUSH1 0x0 DUP1 REVERT JUMPDEST POP PUSH2 0x649 DUP1 PUSH2 0x20 PUSH1 0x0 CODECOPY PUSH1 0x0 RETURN INVALID PUSH1 0x80 PUSH1 0x40 MSTORE CALLVALUE DUP1 ISZERO PUSH2 0x10 JUMPI PUSH1 0x0 DUP1 REVERT JUMPDEST POP PUSH1 0x4 CALLDATASIZE LT PUSH2 0x4C JUMPI PUSH1 0x0 CALLDATALOAD PUSH1 0xE0 SHR DUP1 PUSH4 0x2E64CEC1 EQ PUSH2 0x51 JUMPI DUP1 PUSH4 0x6057361D EQ PUSH2 0x6F JUMPI DUP1 PUSH4 0x6F760F41 EQ PUSH2 0x8B JUMPI DUP1 PUSH4 0x9E7A13AD EQ PUSH2 0xA7 JUMPI JUMPDEST PUSH1 0x0 DUP1 REVERT JUMPDEST PUSH2 0x59 PUSH2 0xD8 JUMP JUMPDEST PUSH1 0x40 MLOAD PUSH2 0x66 SWAP2 SWAP1 PUSH2 0x40D JUMP JUMPDEST PUSH1 0x40 MLOAD DUP1 SWAP2 SUB SWAP1 RETURN JUMPDEST PUSH2 0x89 PUSH1 0x4 DUP1 CALLDATASIZE SUB DUP2 ADD SWAP1 PUSH2 0x84 SWAP2 SWAP1 PUSH2 0x398 JUMP JUMPDEST PUSH2 0xE1 JUMP JUMPDEST STOP JUMPDEST PUSH2 0xA5 PUSH1 0x4 DUP1 CALLDATASIZE SUB DUP2 ADD SWAP1 PUSH2 0xA0 SWAP2 SWAP1 PUSH2 0x33C JUMP JUMPDEST PUSH2 0xEB JUMP JUMPDEST STOP JUMPDEST PUSH2 0xC1 PUSH1 0x4 DUP1 CALLDATASIZE SUB DUP2 ADD SWAP1 PUSH2 0xBC SWAP2 SWAP1 PUSH2 0x398 JUMP JUMPDEST PUSH2 0x158 JUMP JUMPDEST PUSH1 0x40 MLOAD PUSH2 0xCF SWAP3 SWAP2 SWAP1 PUSH2 0x428 JUMP JUMPDEST PUSH1 0x40 MLOAD DUP1 SWAP2 SUB SWAP1 RETURN JUMPDEST PUSH1 0x0 DUP1 SLOAD SWAP1 POP SWAP1 JUMP JUMPDEST DUP1 PUSH1 0x0 DUP2 SWAP1 SSTORE POP POP JUMP JUMPDEST PUSH1 0x1 PUSH1 0x40 MLOAD DUP1 PUSH1 0x40 ADD PUSH1 0x40 MSTORE DUP1 DUP4 DUP2 MSTORE PUSH1 0x20 ADD DUP5 DUP2 MSTORE POP SWAP1 DUP1 PUSH1 0x1 DUP2 SLOAD ADD DUP1 DUP3 SSTORE DUP1 SWAP2 POP POP PUSH1 0x1 SWAP1 SUB SWAP1 PUSH1 0x0 MSTORE PUSH1 0x20 PUSH1 0x0 KECCAK256 SWAP1 PUSH1 0x2 MUL ADD PUSH1 0x0 SWAP1 SWAP2 SWAP1 SWAP2 SWAP1 SWAP2 POP PUSH1 0x0 DUP3 ADD MLOAD DUP2 PUSH1 0x0 ADD SSTORE PUSH1 0x20 DUP3 ADD MLOAD DUP2 PUSH1 0x1 ADD SWAP1 DUP1 MLOAD SWAP1 PUSH1 0x20 ADD SWAP1 PUSH2 0x151 SWAP3 SWAP2 SWAP1 PUSH2 0x214 JUMP JUMPDEST POP POP POP POP POP JUMP JUMPDEST PUSH1 0x1 DUP2 DUP2 SLOAD DUP2 LT PUSH2 0x168 JUMPI PUSH1 0x0 DUP1 REVERT JUMPDEST SWAP1 PUSH1 0x0 MSTORE PUSH1 0x20 PUSH1 0x0 KECCAK256 SWAP1 PUSH1 0x2 MUL ADD PUSH1 0x0 SWAP2 POP SWAP1 POP DUP1 PUSH1 0x0 ADD SLOAD SWAP1 DUP1 PUSH1 0x1 ADD DUP1 SLOAD PUSH2 0x191 SWAP1 PUSH2 0x516 JUMP JUMPDEST DUP1 PUSH1 0x1F ADD PUSH1 0x20 DUP1 SWAP2 DIV MUL PUSH1 0x20 ADD PUSH1 0x40 MLOAD SWAP1 DUP2 ADD PUSH1 0x40 MSTORE DUP1 SWAP3 SWAP2 SWAP1 DUP2 DUP2 MSTORE PUSH1 0x20 ADD DUP3 DUP1 SLOAD PUSH2 0x1BD SWAP1 PUSH2 0x516 JUMP JUMPDEST DUP1 ISZERO PUSH2 0x20A JUMPI DUP1 PUSH1 0x1F LT PUSH2 0x1DF JUMPI PUSH2 0x100 DUP1 DUP4 SLOAD DIV MUL DUP4 MSTORE SWAP2 PUSH1 0x20 ADD SWAP2 PUSH2 0x20A JUMP JUMPDEST DUP3 ADD SWAP2 SWAP1 PUSH1 0x0 MSTORE PUSH1 0x20 PUSH1 0x0 KECCAK256 SWAP1 JUMPDEST DUP2 SLOAD DUP2 MSTORE SWAP1 PUSH1 0x1 ADD SWAP1 PUSH1 0x20 ADD DUP1 DUP4 GT PUSH2 0x1ED JUMPI DUP3 SWAP1 SUB PUSH1 0x1F AND DUP3 ADD SWAP2 JUMPDEST POP POP POP POP POP SWAP1 POP DUP3 JUMP JUMPDEST DUP3 DUP1 SLOAD PUSH2 0x220 SWAP1 PUSH2 0x516 JUMP JUMPDEST SWAP1 PUSH1 0x0 MSTORE PUSH1 0x20 PUSH1 0x0 KECCAK256 SWAP1 PUSH1 0x1F ADD PUSH1 0x20 SWAP1 DIV DUP2 ADD SWAP3 DUP3 PUSH2 0x242 JUMPI PUSH1 0x0 DUP6 SSTORE PUSH2 0x289 JUMP JUMPDEST DUP3 PUSH1 0x1F LT PUSH2 0x25B JUMPI DUP1 MLOAD PUSH1 0xFF NOT AND DUP4 DUP1 ADD OR DUP6 SSTORE PUSH2 0x289 JUMP JUMPDEST DUP3 DUP1 ADD PUSH1 0x1 ADD DUP6 SSTORE DUP3 ISZERO PUSH2 0x289 JUMPI SWAP2 DUP3 ADD JUMPDEST DUP3 DUP2 GT ISZERO PUSH2 0x288 JUMPI DUP3 MLOAD DUP3 SSTORE SWAP2 PUSH1 0x20 ADD SWAP2 SWAP1 PUSH1 0x1 ADD SWAP1 PUSH2 0x26D JUMP JUMPDEST JUMPDEST POP SWAP1 POP PUSH2 0x296 SWAP2 SWAP1 PUSH2 0x29A JUMP JUMPDEST POP SWAP1 JUMP JUMPDEST JUMPDEST DUP1 DUP3 GT ISZERO PUSH2 0x2B3 JUMPI PUSH1 0x0 DUP2 PUSH1 0x0 SWAP1 SSTORE POP PUSH1 0x1 ADD PUSH2 0x29B JUMP JUMPDEST POP SWAP1 JUMP JUMPDEST PUSH1 0x0 PUSH2 0x2CA PUSH2 0x2C5 DUP5 PUSH2 0x47D JUMP JUMPDEST PUSH2 0x458 JUMP JUMPDEST SWAP1 POP DUP3 DUP2 MSTORE PUSH1 0x20 DUP2 ADD DUP5 DUP5 DUP5 ADD GT ISZERO PUSH2 0x2E6 JUMPI PUSH2 0x2E5 PUSH2 0x5DC JUMP JUMPDEST JUMPDEST PUSH2 0x2F1 DUP5 DUP3 DUP6 PUSH2 0x4D4 JUMP JUMPDEST POP SWAP4 SWAP3 POP POP POP JUMP JUMPDEST PUSH1 0x0 DUP3 PUSH1 0x1F DUP4 ADD SLT PUSH2 0x30E JUMPI PUSH2 0x30D PUSH2 0x5D7 JUMP JUMPDEST JUMPDEST DUP2 CALLDATALOAD PUSH2 0x31E DUP5 DUP3 PUSH1 0x20 DUP7 ADD PUSH2 0x2B7 JUMP JUMPDEST SWAP2 POP POP SWAP3 SWAP2 POP POP JUMP JUMPDEST PUSH1 0x0 DUP2 CALLDATALOAD SWAP1 POP PUSH2 0x336 DUP2 PUSH2 0x5FC JUMP JUMPDEST SWAP3 SWAP2 POP POP JUMP JUMPDEST PUSH1 0x0 DUP1 PUSH1 0x40 DUP4 DUP6 SUB SLT ISZERO PUSH2 0x353 JUMPI PUSH2 0x352 PUSH2 0x5E6 JUMP JUMPDEST JUMPDEST PUSH1 0x0 DUP4 ADD CALLDATALOAD PUSH8 0xFFFFFFFFFFFFFFFF DUP2 GT ISZERO PUSH2 0x371 JUMPI PUSH2 0x370 PUSH2 0x5E1 JUMP JUMPDEST JUMPDEST PUSH2 0x37D DUP6 DUP3 DUP7 ADD PUSH2 0x2F9 JUMP JUMPDEST SWAP3 POP POP PUSH1 0x20 PUSH2 0x38E DUP6 DUP3 DUP7 ADD PUSH2 0x327 JUMP JUMPDEST SWAP2 POP POP SWAP3 POP SWAP3 SWAP1 POP JUMP JUMPDEST PUSH1 0x0 PUSH1 0x20 DUP3 DUP5 SUB SLT ISZERO PUSH2 0x3AE JUMPI PUSH2 0x3AD PUSH2 0x5E6 JUMP JUMPDEST JUMPDEST PUSH1 0x0 PUSH2 0x3BC DUP5 DUP3 DUP6 ADD PUSH2 0x327 JUMP JUMPDEST SWAP2 POP POP SWAP3 SWAP2 POP POP JUMP JUMPDEST PUSH1 0x0 PUSH2 0x3D0 DUP3 PUSH2 0x4AE JUMP JUMPDEST PUSH2 0x3DA DUP2 DUP6 PUSH2 0x4B9 JUMP JUMPDEST SWAP4 POP PUSH2 0x3EA DUP2 DUP6 PUSH1 0x20 DUP7 ADD PUSH2 0x4E3 JUMP JUMPDEST PUSH2 0x3F3 DUP2 PUSH2 0x5EB JUMP JUMPDEST DUP5 ADD SWAP2 POP POP SWAP3 SWAP2 POP POP JUMP JUMPDEST PUSH2 0x407 DUP2 PUSH2 0x4CA JUMP JUMPDEST DUP3 MSTORE POP POP JUMP JUMPDEST PUSH1 0x0 PUSH1 0x20 DUP3 ADD SWAP1 POP PUSH2 0x422 PUSH1 0x0 DUP4 ADD DUP5 PUSH2 0x3FE JUMP JUMPDEST SWAP3 SWAP2 POP POP JUMP JUMPDEST PUSH1 0x0 PUSH1 0x40 DUP3 ADD SWAP1 POP PUSH2 0x43D PUSH1 0x0 DUP4 ADD DUP6 PUSH2 0x3FE JUMP JUMPDEST DUP2 DUP2 SUB PUSH1 0x20 DUP4 ADD MSTORE PUSH2 0x44F DUP2 DUP5 PUSH2 0x3C5 JUMP JUMPDEST SWAP1 POP SWAP4 SWAP3 POP POP POP JUMP JUMPDEST PUSH1 0x0 PUSH2 0x462 PUSH2 0x473 JUMP JUMPDEST SWAP1 POP PUSH2 0x46E DUP3 DUP3 PUSH2 0x548 JUMP JUMPDEST SWAP2 SWAP1 POP JUMP JUMPDEST PUSH1 0x0 PUSH1 0x40 MLOAD SWAP1 POP SWAP1 JUMP JUMPDEST PUSH1 0x0 PUSH8 0xFFFFFFFFFFFFFFFF DUP3 GT ISZERO PUSH2 0x498 JUMPI PUSH2 0x497 PUSH2 0x5A8 JUMP JUMPDEST JUMPDEST PUSH2 0x4A1 DUP3 PUSH2 0x5EB JUMP JUMPDEST SWAP1 POP PUSH1 0x20 DUP2 ADD SWAP1 POP SWAP2 SWAP1 POP JUMP JUMPDEST PUSH1 0x0 DUP2 MLOAD SWAP1 POP SWAP2 SWAP1 POP JUMP JUMPDEST PUSH1 0x0 DUP3 DUP3 MSTORE PUSH1 0x20 DUP3 ADD SWAP1 POP SWAP3 SWAP2 POP POP JUMP JUMPDEST PUSH1 0x0 DUP2 SWAP1 POP SWAP2 SWAP1 POP JUMP JUMPDEST DUP3 DUP2 DUP4 CALLDATACOPY PUSH1 0x0 DUP4 DUP4 ADD MSTORE POP POP POP JUMP JUMPDEST PUSH1 0x0 JUMPDEST DUP4 DUP2 LT ISZERO PUSH2 0x501 JUMPI DUP1 DUP3 ADD MLOAD DUP2 DUP5 ADD MSTORE PUSH1 0x20 DUP2 ADD SWAP1 POP PUSH2 0x4E6 JUMP JUMPDEST DUP4 DUP2 GT ISZERO PUSH2 0x510 JUMPI PUSH1 0x0 DUP5 DUP5 ADD MSTORE JUMPDEST POP POP POP POP JUMP JUMPDEST PUSH1 0x0 PUSH1 0x2 DUP3 DIV SWAP1 POP PUSH1 0x1 DUP3 AND DUP1 PUSH2 0x52E JUMPI PUSH1 0x7F DUP3 AND SWAP2 POP JUMPDEST PUSH1 0x20 DUP3 LT DUP2 EQ ISZERO PUSH2 0x542 JUMPI PUSH2 0x541 PUSH2 0x579 JUMP JUMPDEST JUMPDEST POP SWAP2 SWAP1 POP JUMP JUMPDEST PUSH2 0x551 DUP3 PUSH2 0x5EB JUMP JUMPDEST DUP2 ADD DUP2 DUP2 LT PUSH8 0xFFFFFFFFFFFFFFFF DUP3 GT OR ISZERO PUSH2 0x570 JUMPI PUSH2 0x56F PUSH2 0x5A8 JUMP JUMPDEST JUMPDEST DUP1 PUSH1 0x40 MSTORE POP POP POP JUMP JUMPDEST PUSH32 0x4E487B7100000000000000000000000000000000000000000000000000000000 PUSH1 0x0 MSTORE PUSH1 0x22 PUSH1 0x4 MSTORE PUSH1 0x24 PUSH1 0x0 REVERT JUMPDEST PUSH32 0x4E487B7100000000000000000000000000000000000000000000000000000000 PUSH1 0x0 MSTORE PUSH1 0x41 PUSH1 0x4 MSTORE PUSH1 0x24 PUSH1 0x0 REVERT JUMPDEST PUSH1 0x0 DUP1 REVERT JUMPDEST PUSH1 0x0 DUP1 REVERT JUMPDEST PUSH1 0x0 DUP1 REVERT JUMPDEST PUSH1 0x0 DUP1 REVERT JUMPDEST PUSH1 0x0 PUSH1 0x1F NOT PUSH1 0x1F DUP4 ADD AND SWAP1 POP SWAP2 SWAP1 POP JUMP JUMPDEST PUSH2 0x605 DUP2 PUSH2 0x4CA JUMP JUMPDEST DUP2 EQ PUSH2 0x610 JUMPI PUSH1 0x0 DUP1 REVERT JUMPDEST POP JUMP INVALID LOG2 PUSH5 0x6970667358 0x22 SLT KECCAK256 0xF9 DUP15 0x4F 0x29 MUL 0xE3 PUSH7 0x3AEB8B706A4770 CALLDATACOPY POP PUSH1 0xA0 0xB3 DUP11 PUSH21 0x3657687D85057E78B91D2364736F6C634300080700 CALLER LOG2 PUSH5 0x6970667358 0x22 SLT KECCAK256 0xD7 0xD2 XOR RETURNDATACOPY 0x4C SAR EXP 0xE3 EXP SGT PUSH22 0xA4A4F144882BFE37B238AE7C5F1C9045287B02ED8C64 PUSH20 0x6F6C634300080700330000000000000000000000 "
				},
				"gasEstimates": {
					"creation": {
						"codeDepositCost": "527400",
						"executionCost": "562",
						"totalCost": "527962"
					},
					"external": {
						"createSimpleStorageContract()": "infinite",
						"sfStore(uint256,uint256)": "infinite",
						"simpleStorageArray(uint256)": "5064"
					}
				},
				"methodIdentifiers": {
					"createSimpleStorageContract()": "1dda6541",
					"sfStore(uint256,uint256)": "1563700f",
					"simpleStorageArray(uint256)": "64591bf1"
				}
			},
			"storageLayout": {
				"storage": [
					{
						"astId": 55,
						"contract": "contracts/StorageFactory.sol:StorageFactory",
						"label": "simpleStorageArray",
						"offset": 0,
						"slot": "0",
						"type": "t_array(t_contract(SimpleStorage)48)dyn_storage"
					}
				],
				"types": {
					"t_array(t_contract(SimpleStorage)48)dyn_storage": {
						"base": "t_contract(SimpleStorage)48",
						"encoding": "dynamic_array",
						"label": "contract SimpleStorage[]",
						"numberOfBytes": "32"
					},
					"t_contract(SimpleStorage)48": {
						"encoding": "inplace",
						"label": "contract SimpleStorage",
						"numberOfBytes": "20"
					}
				}
			},
			"userdoc": {
				"kind": "user",
				"methods": {},
				"version": 1
			}
		}
	}
}